:0400000081EF00F09C
:10000800A80BA80BA80BA80B4000A80B4000A80B36
:10001800A80BA80BA80BA80BA80BA80BA80BA80B40
:10002800A80B400040004000A80BA80BA80BA80B89
:10003800A80BA80BA80BA80BA80BA80BA80BA80B20
:10004800A80BA80BA80BA80B40004000A80BA80BF6
:10005800A80BA80BA80B4000A80BA80BA80BA80B73
:10006800A80BA80BA80BA80BA80BA80BA80BA80BF0
:10007800A80BA80BA80BA80B4000A80BA80BA80B53
:10008800A80BA80BA80BA80BA80BA80BA80BA80BD0
:10009800A80BA80BA80BA80B4000A80B4000400019
:1000A800A80BA80BA80BA80BA80BA80BA80BA80BB0
:1000B800A80BA80BA80BA80BA80BA80BA80BA80BA0
:1000C800A80BA80BA80BA80BA80BA80BA80BA80B90
:1000D800A80BA80BA80BA80BA80BA80BA80BA80B80
:1000E8004000A80BA80BA80B4000400040004000AF
:0E00F800A80BA80BA80BA80BFF0011EF17F028
:1026000000B701E151E3B601E651E8B0B401EAB820
:10261000F00D0A4D455A54443420253375487A0D3F
:032620000A0000AD
:10262400080E0001B16F04012091C290CA90209558
:102634002185CA84000E086F0969C768189719872D
:10264400C98618951985C98418931983C982189164
:102654001981C980189F198FC98E10991189C8884A
:10266400109D118DC88C109B118BC88A109B118BE7
:10267400C88A00970187C68600950185C6840093A1
:102684000183C68200910181C68020932183CA827E
:1026940000990189C688189BC19AC99A1899C1984A
:1026A400C9981097C086C8961095C084C894109392
:1026B400C082C8921091C080C890000E0201066FBB
:1026C4000401009BC69AED0E436F030E446F000E87
:1026D400456F040E476F4691468B468F010E0201EB
:1026E400D56FA00ED46FD189D18B0401009FC68E03
:1026F400070E0201766F0401009DBE8CC69C260E57
:102704000201076FD28F050E616F1F0E636F0C0EEF
:10271400646F0D0E676F0F0E686F020E0001D56FA8
:10272400000ED66F030ED86F7F0ED96F070EDA6FC7
:102734007F0EDB6F020EDC6F040EDD6F200EDE6F8A
:10274400400EDF6F000ED76F800ED66F030ED56F6D
:10275400000ED66F060ED86F7F0ED96F7F0EDA6F1C
:102764007F0EDB6F020EDC6F040EDD6F100EDE6F6A
:10277400400EDF6F000ED76F820ED66F000ED56F3E
:10278400000ED86F020ED96F7F0EDA6F7F0EDB6FEB
:10279400020EDC6F080EDD6F000EDE6F000EDF6FC1
:1027A400800ED76F840ED66F000ED46F030E020115
:1027B4001D6F040E1E6F43C401F544C402F5000EE0
:1027C400046E430E036E8AEC16F001C541F502C592
:1027D40042F5110E3A6E41C53BF542C53CF539EC64
:1027E40017F0550E0401596FAA0E596F5991080E2E
:1027F4005D6F000E5E6F000E5F6F550E596FAA0E6F
:10280400596F5981D68ED2A40BD0000EC76E010E1B
:10281400F66E260EF76E000EF86E0800F5C4BFF4CF
:10282400290E406E960E3F6E7F0EE82EFED73F2E89
:10283400FCD7402EFAD700F0D2A206D03F0E0201F8
:10284400066FCEAA05D0FDD7000E0201066FBE9A10
:10285400C280D2A206D03F0E0201066FCEAA05D0D6
:10286400FDD7BE9A000E0201066FD2A410D0CEC4CA
:102874003FF50F0E3F163F50010F406E40C5F6F472
:10288400260EF76E000EF86E0800F5C4BFF4010EB4
:10289400436ECFACCFBE02D0000E436E43B002D025
:1028A400C09001D0C080010E446ECFBCCFBE02D018
:1028B400000E446E44B002D0C09201D0C082010E1A
:1028C400456ECFACCFAE02D0000E456E45B002D0FF
:1028D400C09401D0C084010E466ECFB803D000016D
:1028E400D4A105D0CFBCCFAE02D0000E466E46B008
:1028F40002D0C09601D0C086D2A206D03F0E0201FB
:10290400066FCEBAA6D7FDD7000E0201066FCEB869
:10291400FED7020E406EA00E3F6E920EE82EFED73A
:102924003F2EFCD7402EFAD700D0BE8ACEA8FED7C1
:10293400020E406EA00E3F6E920EE82EFED73F2E82
:10294400FCD7402EFAD700D0040146ABFDD746BBD6
:10295400FED7BE9A7ED729C5D9F42AC5DAF4DFC4D6
:10296400F6F4260EF76E000EF86E0800F550250AF0
:10297400D8A471D029C5D9F42AC5DAF4DF2A000E07
:10298400486E000E476E47C54BF549684A6829C52D
:1029940007F52AC508F52BC509F52CC50AF5A3ECDE
:1029A40015F007C547F508C548F548AE05D04B8076
:1029B400476C481ED8B0482A29C5D9F42AC5DAF488
:1029C400DF50336E33C5F6F4260EF76E000EF86E44
:1029D4000800F550750AD8A438D02BC5D9F42CC5F5
:1029E400DAF4DFC42DF5020EDE26DFC42EF5000E68
:1029F400DD222DC5D9F42EC5DAF4DEC42FF5DDC4ED
:102A040030F5332829C5D9F42AC5DAF4DF6E0BD0A2
:102A140027C51DF528C51EF52FC51FF530C520F5A2
:102A240042EC15F0120033C5F6F4260EF76E000ED4
:102A3400F86E0800F5502D6E2E6A2E50000AD8A4A8
:102A440004D02D50750AD8B4E3D729C5D9F42AC5C2
:102A5400DAF4DF2A120029C5D9F42AC5DAF4DFC46E
:102A6400F6F4260EF76E000EF86E0800F550026EAE
:102A7400036A27C504F528C505F5FBEC15F0E5D771
:102A84004AAE05D0000E246E010E236E04D049C553
:102A940023F54AC524F547C521F548C522F5000E9E
:102AA400266E1F0E256E000E05017F6F2AD02506A7
:102AB400D8A02606600E2524D96E050E2620DA6ECF
:102AC4001FC501F520C502F5000E046E0A0E036E43
:102AD400D4EC16F00150300FDF6E2306D8A0240684
:102AE4002106D8A022061FC501F520C502F5000E57
:102AF400046E0A0E036E8AEC16F001C51FF502C5BA
:102B040020F525502610D8B40BD01F502010D8A47F
:102B1400CED724BE05D02450CAE12304D8B0C7D7E9
:102B24001DC512F51EC513F5600E2524146E050E81
:102B34002620156E21C516F522C517F54BEC16F0A7
:102B44001200000E0F6E000E0E6E07C5D9F408C5F4
:102B5400DAF4DFC4F6F4260EF76E000EF86E080001
:102B6400F5502A0AD8A42FD007C5D9F408C5DAF439
:102B7400DF2A09C5D9F40AC5DAF4DFC40BF5020E5D
:102B8400DE26DFC40CF5000EDD220BC5D9F40CC51E
:102B9400DAF4DEC40EF5DDC40FF526D00EC501F55A
:102BA4000FC502F5000E046E0A0E036E26EC17F034
:102BB4000D5001240E6E000E02200F6E07C5D9F4CD
:102BC40008C5DAF4DF2A07C5D9F408C5DAF4DFC486
:102BD400F6F4260EF76E000EF86E0800F550D00FCE
:102BE4000D6E090E0D64DAD70EC507F50FC508F58D
:102BF400120004500510D8B404D004500510D8A411
:102C040004D002504AEC17F0120020EE0AF00450EF
:102C1400D9260550DA22DE50DE10D8B416D020EEC4
:102C24000AF00450D9260550DA2210EE03F00450BD
:102C3400E1260550E222DE50E65CE650800A0A6E88
:102C4400DE50800A0A58D8B0120020EE03F0045077
:102C5400D9260550DA22DEC406F5DDC407F504C51D
:102C6400D9F405C5DAF4DEC408F5DDC409F5065067
:102C74000824D96E07500920DA6E02C5DFF420EE6D
:102C840003F00450D9260550DA22DE2A000EDD2294
:102C940012004BA00AD014C50BF515C50CF512C5CE
:102CA4000DF513C50EF5F5EC16F017BE05D016C5D7
:102CB4001BF517C51CF504D0000E1C6E000E1B6E10
:102CC400000E1A6E000E196E0CD0000E036E200E4C
:102CD400026E12C504F513C505F5FBEC15F0194A8F
:102CE4001A2A1B50195C1A50800A186E1C50800A4C
:102CF4001858D8A0EAD74BB0120014C50BF515C567
:102D04000CF512C50DF513C50EF5F5EC16F0120011
:102D1400000E066E000E056E03500410D8B41CD0CD
:102D2400010E076E04D0D89003360436072A04AE89
:102D3400FAD7D890053606360350015C0450025881
:102D4400D8A005D00350015E0450025A0580D890E3
:102D540004320332072EEDD705C501F506C502F589
:102D6400120036C539F50ED034C527F535C528F51A
:102D7400390E296E050E2A6E37C52BF538C52CF58C
:102D8400ADEC14F039C5F6F4260EF76E000EF86EAD
:102D94000800F5500009D8A4E7D7000E356E000EE0
:102DA400346E120003500410D8B418D0010E056E0E
:102DB40004D0D89003360436052A04AEFAD703505B
:102DC400015C04500258D8A004D00350015E0450A2
:102DD400025AD89004320332052EF1D701C501F509
:102DE40002C502F51200000E116E000E106E0BD01B
:102DF4000FC502F5036A0DC504F50EC505F5FBEC18
:102E040015F0104A112A10500B24D96E11500C20C1
:102E1400DA6EDF500F6E0F50D8B41200E9D701EE0E
:102E240060F1200EEE6AE806FDE14B6A4A6A496ADF
:102E3400486A476A0401080E5D6F000E5E6F000E5B
:102E44005F6F000112EF13F001500302F3C405F5A4
:102E5400F4C406F501500402F3500626025003029E
:102E6400F350062605C501F506C502F512003B0E12
:102E74003D6E050E3E6E000E346E000E356E3AC584
:102E840036F53D0E376E050E386EB3EC16F01200B3
:0E2E9400016EB7A2FED701C5C9F212001100EF
:020000040020DA
:10000000FFFFFFFFFFFFFFFFFFFFFFFFFFFFFFFF00
:10001000FFFFFFFFFFFFFFFFFFFFFFFFFFFFFFFFF0
:10002000FFFFFFFFFFFFFFFFFFFFFFFFFFFFFFFFE0
:10003000FFFFFFFFFFFFFFFFFFFFFFFFFFFFFFFFD0
:020000040030CA
:080000008CFFFFF79FFFFFFFDB
:01000900FFF7
:00000001FF
